{
  "_format": "hh-sol-artifact-1",
  "contractName": "P2PLending",
  "sourceName": "contracts/P2PLending.sol",
  "abi": [
    {
      "inputs": [],
      "stateMutability": "nonpayable",
      "type": "constructor"
    },
    {
      "inputs": [
        {
          "internalType": "address",
          "name": "owner",
          "type": "address"
        }
      ],
      "name": "OwnableInvalidOwner",
      "type": "error"
    },
    {
      "inputs": [
        {
          "internalType": "address",
          "name": "account",
          "type": "address"
        }
      ],
      "name": "OwnableUnauthorizedAccount",
      "type": "error"
    },
    {
      "inputs": [],
      "name": "ReentrancyGuardReentrantCall",
      "type": "error"
    },
    {
      "anonymous": false,
      "inputs": [
        {
          "indexed": true,
          "internalType": "uint256",
          "name": "requestId",
          "type": "uint256"
        },
        {
          "indexed": true,
          "internalType": "address",
          "name": "investor",
          "type": "address"
        },
        {
          "indexed": false,
          "internalType": "uint256",
          "name": "amount",
          "type": "uint256"
        }
      ],
      "name": "InvestmentMade",
      "type": "event"
    },
    {
      "anonymous": false,
      "inputs": [
        {
          "indexed": true,
          "internalType": "uint256",
          "name": "loanId",
          "type": "uint256"
        },
        {
          "indexed": true,
          "internalType": "address",
          "name": "borrower",
          "type": "address"
        },
        {
          "indexed": false,
          "internalType": "uint256",
          "name": "amount",
          "type": "uint256"
        }
      ],
      "name": "LoanFunded",
      "type": "event"
    },
    {
      "anonymous": false,
      "inputs": [
        {
          "indexed": true,
          "internalType": "uint256",
          "name": "loanId",
          "type": "uint256"
        },
        {
          "indexed": true,
          "internalType": "address",
          "name": "borrower",
          "type": "address"
        },
        {
          "indexed": false,
          "internalType": "uint256",
          "name": "amount",
          "type": "uint256"
        }
      ],
      "name": "LoanRepaid",
      "type": "event"
    },
    {
      "anonymous": false,
      "inputs": [
        {
          "indexed": true,
          "internalType": "uint256",
          "name": "requestId",
          "type": "uint256"
        },
        {
          "indexed": true,
          "internalType": "address",
          "name": "borrower",
          "type": "address"
        },
        {
          "indexed": false,
          "internalType": "uint256",
          "name": "amount",
          "type": "uint256"
        }
      ],
      "name": "LoanRequestCreated",
      "type": "event"
    },
    {
      "anonymous": false,
      "inputs": [
        {
          "indexed": true,
          "internalType": "address",
          "name": "previousOwner",
          "type": "address"
        },
        {
          "indexed": true,
          "internalType": "address",
          "name": "newOwner",
          "type": "address"
        }
      ],
      "name": "OwnershipTransferred",
      "type": "event"
    },
    {
      "anonymous": false,
      "inputs": [
        {
          "indexed": true,
          "internalType": "address",
          "name": "user",
          "type": "address"
        },
        {
          "indexed": false,
          "internalType": "uint256",
          "name": "creditScore",
          "type": "uint256"
        }
      ],
      "name": "UserRegistered",
      "type": "event"
    },
    {
      "inputs": [
        {
          "internalType": "uint256",
          "name": "_amount",
          "type": "uint256"
        },
        {
          "internalType": "uint256",
          "name": "_interestRate",
          "type": "uint256"
        },
        {
          "internalType": "uint256",
          "name": "_duration",
          "type": "uint256"
        },
        {
          "internalType": "string",
          "name": "_purpose",
          "type": "string"
        }
      ],
      "name": "createLoanRequest",
      "outputs": [
        {
          "internalType": "uint256",
          "name": "",
          "type": "uint256"
        }
      ],
      "stateMutability": "nonpayable",
      "type": "function"
    },
    {
      "inputs": [
        {
          "internalType": "uint256",
          "name": "_id",
          "type": "uint256"
        }
      ],
      "name": "getLoan",
      "outputs": [
        {
          "components": [
            {
              "internalType": "uint256",
              "name": "id",
              "type": "uint256"
            },
            {
              "internalType": "address",
              "name": "borrower",
              "type": "address"
            },
            {
              "internalType": "uint256",
              "name": "amount",
              "type": "uint256"
            },
            {
              "internalType": "uint256",
              "name": "interestRate",
              "type": "uint256"
            },
            {
              "internalType": "uint256",
              "name": "duration",
              "type": "uint256"
            },
            {
              "internalType": "uint256",
              "name": "startTime",
              "type": "uint256"
            },
            {
              "internalType": "uint256",
              "name": "creditScore",
              "type": "uint256"
            },
            {
              "internalType": "string",
              "name": "purpose",
              "type": "string"
            },
            {
              "internalType": "enum P2PLending.LoanStatus",
              "name": "status",
              "type": "uint8"
            },
            {
              "internalType": "uint256",
              "name": "repaidAmount",
              "type": "uint256"
            },
            {
              "internalType": "address[]",
              "name": "lenders",
              "type": "address[]"
            },
            {
              "internalType": "uint256",
              "name": "totalLended",
              "type": "uint256"
            }
          ],
          "internalType": "struct P2PLending.Loan",
          "name": "",
          "type": "tuple"
        }
      ],
      "stateMutability": "view",
      "type": "function"
    },
    {
      "inputs": [
        {
          "internalType": "uint256",
          "name": "_id",
          "type": "uint256"
        }
      ],
      "name": "getLoanRequest",
      "outputs": [
        {
          "internalType": "uint256",
          "name": "id",
          "type": "uint256"
        },
        {
          "internalType": "address",
          "name": "borrower",
          "type": "address"
        },
        {
          "internalType": "uint256",
          "name": "amount",
          "type": "uint256"
        },
        {
          "internalType": "uint256",
          "name": "interestRate",
          "type": "uint256"
        },
        {
          "internalType": "uint256",
          "name": "duration",
          "type": "uint256"
        },
        {
          "internalType": "uint256",
          "name": "creditScore",
          "type": "uint256"
        },
        {
          "internalType": "string",
          "name": "purpose",
          "type": "string"
        },
        {
          "internalType": "bool",
          "name": "active",
          "type": "bool"
        },
        {
          "internalType": "uint256",
          "name": "fundedAmount",
          "type": "uint256"
        }
      ],
      "stateMutability": "view",
      "type": "function"
    },
    {
      "inputs": [
        {
          "internalType": "address",
          "name": "_user",
          "type": "address"
        }
      ],
      "name": "getUserProfile",
      "outputs": [
        {
          "components": [
            {
              "internalType": "uint256",
              "name": "creditScore",
              "type": "uint256"
            },
            {
              "internalType": "uint256",
              "name": "totalBorrowed",
              "type": "uint256"
            },
            {
              "internalType": "uint256",
              "name": "totalRepaid",
              "type": "uint256"
            },
            {
              "internalType": "uint256",
              "name": "totalLended",
              "type": "uint256"
            },
            {
              "internalType": "uint256",
              "name": "totalEarned",
              "type": "uint256"
            },
            {
              "internalType": "uint256",
              "name": "activeLoans",
              "type": "uint256"
            },
            {
              "internalType": "uint256",
              "name": "completedLoans",
              "type": "uint256"
            },
            {
              "internalType": "bool",
              "name": "isRegistered",
              "type": "bool"
            }
          ],
          "internalType": "struct P2PLending.UserProfile",
          "name": "",
          "type": "tuple"
        }
      ],
      "stateMutability": "view",
      "type": "function"
    },
    {
      "inputs": [
        {
          "internalType": "uint256",
          "name": "_requestId",
          "type": "uint256"
        }
      ],
      "name": "investInLoan",
      "outputs": [],
      "stateMutability": "payable",
      "type": "function"
    },
    {
      "inputs": [
        {
          "internalType": "uint256",
          "name": "",
          "type": "uint256"
        },
        {
          "internalType": "address",
          "name": "",
          "type": "address"
        }
      ],
      "name": "lenderAmounts",
      "outputs": [
        {
          "internalType": "uint256",
          "name": "",
          "type": "uint256"
        }
      ],
      "stateMutability": "view",
      "type": "function"
    },
    {
      "inputs": [],
      "name": "loanCounter",
      "outputs": [
        {
          "internalType": "uint256",
          "name": "",
          "type": "uint256"
        }
      ],
      "stateMutability": "view",
      "type": "function"
    },
    {
      "inputs": [
        {
          "internalType": "uint256",
          "name": "",
          "type": "uint256"
        }
      ],
      "name": "loanRequests",
      "outputs": [
        {
          "internalType": "uint256",
          "name": "id",
          "type": "uint256"
        },
        {
          "internalType": "address",
          "name": "borrower",
          "type": "address"
        },
        {
          "internalType": "uint256",
          "name": "amount",
          "type": "uint256"
        },
        {
          "internalType": "uint256",
          "name": "interestRate",
          "type": "uint256"
        },
        {
          "internalType": "uint256",
          "name": "duration",
          "type": "uint256"
        },
        {
          "internalType": "uint256",
          "name": "creditScore",
          "type": "uint256"
        },
        {
          "internalType": "string",
          "name": "purpose",
          "type": "string"
        },
        {
          "internalType": "bool",
          "name": "active",
          "type": "bool"
        },
        {
          "internalType": "uint256",
          "name": "fundedAmount",
          "type": "uint256"
        }
      ],
      "stateMutability": "view",
      "type": "function"
    },
    {
      "inputs": [
        {
          "internalType": "uint256",
          "name": "",
          "type": "uint256"
        }
      ],
      "name": "loans",
      "outputs": [
        {
          "internalType": "uint256",
          "name": "id",
          "type": "uint256"
        },
        {
          "internalType": "address",
          "name": "borrower",
          "type": "address"
        },
        {
          "internalType": "uint256",
          "name": "amount",
          "type": "uint256"
        },
        {
          "internalType": "uint256",
          "name": "interestRate",
          "type": "uint256"
        },
        {
          "internalType": "uint256",
          "name": "duration",
          "type": "uint256"
        },
        {
          "internalType": "uint256",
          "name": "startTime",
          "type": "uint256"
        },
        {
          "internalType": "uint256",
          "name": "creditScore",
          "type": "uint256"
        },
        {
          "internalType": "string",
          "name": "purpose",
          "type": "string"
        },
        {
          "internalType": "enum P2PLending.LoanStatus",
          "name": "status",
          "type": "uint8"
        },
        {
          "internalType": "uint256",
          "name": "repaidAmount",
          "type": "uint256"
        },
        {
          "internalType": "uint256",
          "name": "totalLended",
          "type": "uint256"
        }
      ],
      "stateMutability": "view",
      "type": "function"
    },
    {
      "inputs": [],
      "name": "owner",
      "outputs": [
        {
          "internalType": "address",
          "name": "",
          "type": "address"
        }
      ],
      "stateMutability": "view",
      "type": "function"
    },
    {
      "inputs": [],
      "name": "platformFee",
      "outputs": [
        {
          "internalType": "uint256",
          "name": "",
          "type": "uint256"
        }
      ],
      "stateMutability": "view",
      "type": "function"
    },
    {
      "inputs": [
        {
          "internalType": "uint256",
          "name": "_creditScore",
          "type": "uint256"
        }
      ],
      "name": "registerUser",
      "outputs": [],
      "stateMutability": "nonpayable",
      "type": "function"
    },
    {
      "inputs": [],
      "name": "renounceOwnership",
      "outputs": [],
      "stateMutability": "nonpayable",
      "type": "function"
    },
    {
      "inputs": [
        {
          "internalType": "uint256",
          "name": "_loanId",
          "type": "uint256"
        }
      ],
      "name": "repayLoan",
      "outputs": [],
      "stateMutability": "payable",
      "type": "function"
    },
    {
      "inputs": [],
      "name": "requestCounter",
      "outputs": [
        {
          "internalType": "uint256",
          "name": "",
          "type": "uint256"
        }
      ],
      "stateMutability": "view",
      "type": "function"
    },
    {
      "inputs": [
        {
          "internalType": "uint256",
          "name": "",
          "type": "uint256"
        },
        {
          "internalType": "address",
          "name": "",
          "type": "address"
        }
      ],
      "name": "requestInvestments",
      "outputs": [
        {
          "internalType": "uint256",
          "name": "",
          "type": "uint256"
        }
      ],
      "stateMutability": "view",
      "type": "function"
    },
    {
      "inputs": [
        {
          "internalType": "address",
          "name": "newOwner",
          "type": "address"
        }
      ],
      "name": "transferOwnership",
      "outputs": [],
      "stateMutability": "nonpayable",
      "type": "function"
    },
    {
      "inputs": [
        {
          "internalType": "address",
          "name": "",
          "type": "address"
        }
      ],
      "name": "userProfiles",
      "outputs": [
        {
          "internalType": "uint256",
          "name": "creditScore",
          "type": "uint256"
        },
        {
          "internalType": "uint256",
          "name": "totalBorrowed",
          "type": "uint256"
        },
        {
          "internalType": "uint256",
          "name": "totalRepaid",
          "type": "uint256"
        },
        {
          "internalType": "uint256",
          "name": "totalLended",
          "type": "uint256"
        },
        {
          "internalType": "uint256",
          "name": "totalEarned",
          "type": "uint256"
        },
        {
          "internalType": "uint256",
          "name": "activeLoans",
          "type": "uint256"
        },
        {
          "internalType": "uint256",
          "name": "completedLoans",
          "type": "uint256"
        },
        {
          "internalType": "bool",
          "name": "isRegistered",
          "type": "bool"
        }
      ],
      "stateMutability": "view",
      "type": "function"
    }
  ],
  "bytecode": "0x6080604052606460045534801561001557600080fd5b506001600055338061004157604051631e4fbdf760e01b81526000600482015260240160405180910390fd5b61004a81610050565b506100a2565b600180546001600160a01b038381166001600160a01b0319831681179093556040519116919082907f8be0079c531659141344cd1fd0a4f28419497f9722a3daafe3b4186f6b6457e090600090a35050565b611e81806100b16000396000f3fe6080604052600436106101095760003560e01c80639603c53611610095578063ab7b1c8911610064578063ab7b1c89146103b2578063bc06d425146103c5578063d1b332f4146103fd578063e1ec3c681461041d578063f2fde38b1461045457600080fd5b80639603c536146102e6578063973a814e146102f9578063987ee1561461030f578063a0f337f01461039257600080fd5b8063332d56d7116100dc578063332d56d7146101c657806334d9289e14610266578063504006ca1461027c578063715018a6146102a95780638da5cb5b146102be57600080fd5b80630646a1411461010e5780631b3b8671146101595780631bbfae0e1461018e57806326232a2e146101b0575b600080fd5b34801561011a57600080fd5b506101466101293660046117c1565b600860209081526000928352604080842090915290825290205481565b6040519081526020015b60405180910390f35b34801561016557600080fd5b506101796101743660046117ed565b610474565b6040516101509998979695949392919061184c565b34801561019a57600080fd5b506101ae6101a93660046117ed565b610591565b005b3480156101bc57600080fd5b5061014660045481565b3480156101d257600080fd5b506102296101e13660046118a6565b60076020819052600091825260409091208054600182015460028301546003840154600485015460058601546006870154969097015494969395929491939092909160ff1688565b604080519889526020890197909752958701949094526060860192909252608085015260a084015260c0830152151560e082015261010001610150565b34801561027257600080fd5b5061014660025481565b34801561028857600080fd5b5061029c6102973660046117ed565b610712565b6040516101509190611944565b3480156102b557600080fd5b506101ae6108cb565b3480156102ca57600080fd5b506001546040516001600160a01b039091168152602001610150565b6101ae6102f43660046117ed565b6108df565b34801561030557600080fd5b5061014660035481565b34801561031b57600080fd5b5061032f61032a3660046118a6565b610b36565b6040516101509190600061010082019050825182526020830151602083015260408301516040830152606083015160608301526080830151608083015260a083015160a083015260c083015160c083015260e0830151151560e083015292915050565b34801561039e57600080fd5b506101466103ad366004611a26565b610bf9565b6101ae6103c03660046117ed565b610dca565b3480156103d157600080fd5b506101466103e03660046117c1565b600960209081526000928352604080842090915290825290205481565b34801561040957600080fd5b506101796104183660046117ed565b611146565b34801561042957600080fd5b5061043d6104383660046117ed565b611229565b6040516101509b9a99989796959493929190611af4565b34801561046057600080fd5b506101ae61046f3660046118a6565b61131b565b60008060008060008060606000806000600660008c8152602001908152602001600020905080600001548160010160009054906101000a90046001600160a01b03168260020154836003015484600401548560050154866006018760070160009054906101000a900460ff1688600801548280546104f190611b66565b80601f016020809104026020016040519081016040528092919081815260200182805461051d90611b66565b801561056a5780601f1061053f5761010080835404028352916020019161056a565b820191906000526020600020905b81548152906001019060200180831161054d57829003601f168201915b50505050509250995099509950995099509950995099509950509193959799909294969850565b336000908152600760208190526040909120015460ff16156105ef5760405162461bcd60e51b8152602060048201526012602482015271105b1c9958591e481c9959da5cdd195c995960721b60448201526064015b60405180910390fd5b61012c811015801561060357506103528111155b6106465760405162461bcd60e51b8152602060048201526014602482015273496e76616c6964206372656469742073636f726560601b60448201526064016105e6565b604080516101008101825282815260006020808301828152838501838152606085018481526080860185815260a0870186815260c08801878152600160e08a0181815233808b526007998a9052998c90209a518b559651908a01559351600289015591516003880155516004870155516005860155516006850155519201805492151560ff199093169290921790915590517fe29d35093005f4d575e1003753426b57a7f64378ba73332eef9c6ccc2b8decd6906107079084815260200190565b60405180910390a250565b61071a6116c5565b6000828152600560208181526040928390208351610180810185528154815260018201546001600160a01b03169281019290925260028101549382019390935260038301546060820152600483015460808201529082015460a0820152600682015460c082015260078201805491929160e08401919061079990611b66565b80601f01602080910402602001604051908101604052809291908181526020018280546107c590611b66565b80156108125780601f106107e757610100808354040283529160200191610812565b820191906000526020600020905b8154815290600101906020018083116107f557829003601f168201915b5050509183525050600882015460209091019060ff166004811115610839576108396118c8565b600481111561084a5761084a6118c8565b815260200160098201548152602001600a82018054806020026020016040519081016040528092919081815260200182805480156108b157602002820191906000526020600020905b81546001600160a01b03168152600190910190602001808311610893575b50505050508152602001600b820154815250509050919050565b6108d3611356565b6108dd6000611383565b565b6108e76113d5565b6000818152600660205260409020600781015460ff1661093e5760405162461bcd60e51b815260206004820152601260248201527152657175657374206e6f742061637469766560701b60448201526064016105e6565b60018101546001600160a01b0316330361099a5760405162461bcd60e51b815260206004820152601960248201527f43616e6e6f7420696e7665737420696e206f776e206c6f616e0000000000000060448201526064016105e6565b600034116109db5760405162461bcd60e51b815260206004820152600e60248201526d125b9d985b1a5908185b5bdd5b9d60921b60448201526064016105e6565b6000816008015482600201546109f19190611bb6565b90506000813411610a025734610a04565b815b600085815260096020908152604080832033845290915281205491925003610a4e57600983018054600181018255600091825260209091200180546001600160a01b031916331790555b600084815260096020908152604080832033845290915281208054839290610a77908490611bcf565b9250508190555080836008016000828254610a929190611bcf565b909155505034811015610ad757336108fc610aad8334611bb6565b6040518115909202916000818181858888f19350505050158015610ad5573d6000803e3d6000fd5b505b604051818152339085907f89728d542d77fad9fe42c7d1f032c2b85f64cf938d754183b0e95359fbfac8a19060200160405180910390a38260020154836008015410610b2657610b26846113ff565b505050610b336001600055565b50565b610b80604051806101000160405280600081526020016000815260200160008152602001600081526020016000815260200160008152602001600081526020016000151581525090565b506001600160a01b0316600090815260076020818152604092839020835161010081018552815481526001820154928101929092526002810154938201939093526003830154606082015260048301546080820152600583015460a0820152600683015460c082015291015460ff16151560e082015290565b6000610c036113d5565b336000908152600760208190526040909120015460ff16610c575760405162461bcd60e51b815260206004820152600e60248201526d139bdd081c9959da5cdd195c995960921b60448201526064016105e6565b60008511610c985760405162461bcd60e51b815260206004820152600e60248201526d125b9d985b1a5908185b5bdd5b9d60921b60448201526064016105e6565b600084118015610caa57506113888411155b610cee5760405162461bcd60e51b8152602060048201526015602482015274496e76616c696420696e746572657374207261746560581b60448201526064016105e6565b60038054906000610cfe83611be2565b90915550506003805460008181526006602081815260408084209485556001850180546001600160a01b03191633908117909155600286018c90559585018a90556004850189905594835260079052929020546005820155908101610d638482611c4a565b5060078101805460ff191660011790556003546040513391907f0d97c32b6c6fbcf695510929722c1b627eb3d1e9ba7dcc059e7f85ec78a27eb690610dab908a815260200190565b60405180910390a35050600354610dc26001600055565b949350505050565b610dd26113d5565b60008181526005602052604090206001600882015460ff166004811115610dfb57610dfb6118c8565b14610e3a5760405162461bcd60e51b815260206004820152600f60248201526e4c6f616e206e6f742061637469766560881b60448201526064016105e6565b60018101546001600160a01b03163314610e965760405162461bcd60e51b815260206004820152601760248201527f4f6e6c7920626f72726f7765722063616e20726570617900000000000000000060448201526064016105e6565b600061271082600301548360020154610eaf9190611d0a565b610eb99190611d21565b8260020154610ec89190611bcf565b905080341015610f115760405162461bcd60e51b8152602060048201526014602482015273125b9cdd59999a58da595b9d081c185e5b595b9d60621b60448201526064016105e6565b60088201805460ff191660021790556009820181905560005b600a83015481101561102757600083600a018281548110610f4d57610f4d611d43565b60009182526020808320909101548783526008825260408084206001600160a01b03909216808552919092529082205460028701549193509190610f918387611d0a565b610f9b9190611d21565b6040519091506001600160a01b0384169082156108fc029083906000818181858888f19350505050158015610fd4573d6000803e3d6000fd5b50610fdf8282611bb6565b6001600160a01b0384166000908152600760205260408120600401805490919061100a908490611bcf565b92505081905550505050808061101f90611be2565b915050610f2a565b5060028083015460018401546001600160a01b0316600090815260076020526040812090920180549192909161105e908490611bcf565b909155505060018201546001600160a01b0316600090815260076020526040812060050180549161108e83611d59565b909155505060018201546001600160a01b031660009081526007602052604081206006018054916110be83611be2565b91905055508034111561110357336108fc6110d98334611bb6565b6040518115909202916000818181858888f19350505050158015611101573d6000803e3d6000fd5b505b604051818152339084907f512d3e65b3e58c2187bb1872aa435dba5bd09c1c03823ba56ab70aac411e4a219060200160405180910390a35050610b336001600055565b6006602081905260009182526040909120805460018201546002830154600384015460048501546005860154968601805495976001600160a01b0390951696939592949193919261119690611b66565b80601f01602080910402602001604051908101604052809291908181526020018280546111c290611b66565b801561120f5780601f106111e45761010080835404028352916020019161120f565b820191906000526020600020905b8154815290600101906020018083116111f257829003601f168201915b505050506007830154600890930154919260ff1691905089565b60056020819052600091825260409091208054600182015460028301546003840154600485015495850154600686015460078701805496986001600160a01b03909616979496939594929391929161128090611b66565b80601f01602080910402602001604051908101604052809291908181526020018280546112ac90611b66565b80156112f95780601f106112ce576101008083540402835291602001916112f9565b820191906000526020600020905b8154815290600101906020018083116112dc57829003601f168201915b5050505060088301546009840154600b90940154929360ff909116929091508b565b611323611356565b6001600160a01b03811661134d57604051631e4fbdf760e01b8152600060048201526024016105e6565b610b3381611383565b6001546001600160a01b031633146108dd5760405163118cdaa760e01b81523360048201526024016105e6565b600180546001600160a01b038381166001600160a01b0319831681179093556040519116919082907f8be0079c531659141344cd1fd0a4f28419497f9722a3daafe3b4186f6b6457e090600090a35050565b6002600054036113f857604051633ee5aeb560e01b815260040160405180910390fd5b6002600055565b600081815260066020526040812060028054919261141c83611be2565b909155505060028054600081815260056020819052604090912091825560018085015490830180546001600160a01b0319166001600160a01b039092169190911790558383015492820192909255600380840154908201556004808401549082015542818301559082015460068083019190915560078201906114a190840182611d70565b506008818101805460ff19166001179055820154600b8201556009820180546114ce91600a840191611740565b5060005b600983015481101561154d5760008360090182815481106114f5576114f5611d43565b60009182526020808320909101548783526009825260408084206001600160a01b039092168085529183528084205460025485526008845281852092855291909252912055508061154581611be2565b9150506114d2565b50600061271060045484600201546115659190611d0a565b61156f9190611d21565b905060008184600201546115839190611bb6565b60018501546040519192506001600160a01b03169082156108fc029083906000818181858888f193505050501580156115c0573d6000803e3d6000fd5b506001546040516001600160a01b039091169083156108fc029084906000818181858888f193505050501580156115fb573d6000803e3d6000fd5b5060018401546001600160a01b0316600090815260076020526040812060050180549161162783611be2565b909155505060028401546001808601546001600160a01b031660009081526007602052604081209091018054909190611661908490611bcf565b909155505060078401805460ff19169055600184015460028054908601546040519081526001600160a01b03909216917fbd7ef6c6281278f6c8ac4ae9ef2f205b52425813c288dd47c377cb6b59c5076e9060200160405180910390a35050505050565b6040518061018001604052806000815260200160006001600160a01b0316815260200160008152602001600081526020016000815260200160008152602001600081526020016060815260200160006004811115611725576117256118c8565b81526020016000815260200160608152602001600081525090565b8280548282559060005260206000209081019282156117805760005260206000209182015b82811115611780578254825591600101919060010190611765565b5061178c929150611790565b5090565b5b8082111561178c5760008155600101611791565b80356001600160a01b03811681146117bc57600080fd5b919050565b600080604083850312156117d457600080fd5b823591506117e4602084016117a5565b90509250929050565b6000602082840312156117ff57600080fd5b5035919050565b6000815180845260005b8181101561182c57602081850181015186830182015201611810565b506000602082860101526020601f19601f83011685010191505092915050565b60006101208b835260018060a01b038b1660208401528960408401528860608401528760808401528660a08401528060c084015261188c81840187611806565b94151560e084015250506101000152979650505050505050565b6000602082840312156118b857600080fd5b6118c1826117a5565b9392505050565b634e487b7160e01b600052602160045260246000fd5b600581106118fc57634e487b7160e01b600052602160045260246000fd5b9052565b600081518084526020808501945080840160005b838110156119395781516001600160a01b031687529582019590820190600101611914565b509495945050505050565b60208152815160208201526000602083015161196b60408401826001600160a01b03169052565b506040830151606083015260608301516080830152608083015160a083015260a083015160c083015260c083015160e083015260e083015161018061010081818601526119bc6101a0860184611806565b908601519092506101206119d2868201836118de565b86015161014086810191909152860151858403601f190161016080880191909152909150611a008483611900565b9601519190940152509192915050565b634e487b7160e01b600052604160045260246000fd5b60008060008060808587031215611a3c57600080fd5b843593506020850135925060408501359150606085013567ffffffffffffffff80821115611a6957600080fd5b818701915087601f830112611a7d57600080fd5b813581811115611a8f57611a8f611a10565b604051601f8201601f19908116603f01168101908382118183101715611ab757611ab7611a10565b816040528281528a6020848701011115611ad057600080fd5b82602086016020830137600060208483010152809550505050505092959194509250565b60006101608d835260018060a01b038d1660208401528b60408401528a60608401528960808401528860a08401528760c08401528060e0840152611b3a81840188611806565b915050611b4b6101008301866118de565b61012082019390935261014001529998505050505050505050565b600181811c90821680611b7a57607f821691505b602082108103611b9a57634e487b7160e01b600052602260045260246000fd5b50919050565b634e487b7160e01b600052601160045260246000fd5b81810381811115611bc957611bc9611ba0565b92915050565b80820180821115611bc957611bc9611ba0565b600060018201611bf457611bf4611ba0565b5060010190565b601f821115611c4557600081815260208120601f850160051c81016020861015611c225750805b601f850160051c820191505b81811015611c4157828155600101611c2e565b5050505b505050565b815167ffffffffffffffff811115611c6457611c64611a10565b611c7881611c728454611b66565b84611bfb565b602080601f831160018114611cad5760008415611c955750858301515b600019600386901b1c1916600185901b178555611c41565b600085815260208120601f198616915b82811015611cdc57888601518255948401946001909101908401611cbd565b5085821015611cfa5787850151600019600388901b60f8161c191681555b5050505050600190811b01905550565b8082028115828204841417611bc957611bc9611ba0565b600082611d3e57634e487b7160e01b600052601260045260246000fd5b500490565b634e487b7160e01b600052603260045260246000fd5b600081611d6857611d68611ba0565b506000190190565b818103611d7b575050565b611d858254611b66565b67ffffffffffffffff811115611d9d57611d9d611a10565b611dab81611c728454611b66565b6000601f821160018114611ddf5760008315611dc75750848201545b600019600385901b1c1916600184901b178455611e44565b600085815260209020601f19841690600086815260209020845b83811015611e195782860154825560019586019590910190602001611df9565b5085831015611e375781850154600019600388901b60f8161c191681555b50505060018360011b0184555b505050505056fea2646970667358221220c0b4926ef41e09eb50ae6f29cb3d6a275f8bc3f59e17106ff2108c9886fe56f564736f6c63430008140033",
  "linkReferences": {},
  "deployedLinkReferences": {}
}